{
  "transactions": [
    {
      "hash": "0x0568236598f64dd94c4fb89964fb023809482f57c830eb2ea9b01afedf4c1b2d",
      "transactionType": "CALL",
      "contractName": null,
      "contractAddress": "0x3601829f59f17c475e305ac12d1b956b445d0876",
      "function": "mintNFT(address,string)",
      "arguments": [
        "0xA6cD042740CFabDA78dB63d61b36526202b13b21",
        "https://aqua-rear-tyrannosaurus-290.mypinata.cloud/ipfs/bafybeigfomcerlap2ixqrvso6ee2avwrfzt5fyq5cqirsqehpofgzvpyaq/Acrobatic_Silky_Anime_Infobox.webp"
      ],
      "transaction": {
        "from": "0xa6cd042740cfabda78db63d61b36526202b13b21",
        "to": "0x3601829f59f17c475e305ac12d1b956b445d0876",
        "gas": "0x51bac",
        "value": "0x0",
        "input": "0xeacabe14000000000000000000000000a6cd042740cfabda78db63d61b36526202b13b210000000000000000000000000000000000000000000000000000000000000040000000000000000000000000000000000000000000000000000000000000009668747470733a2f2f617175612d726561722d747972616e6e6f7361757275732d3239302e6d7970696e6174612e636c6f75642f697066732f6261667962656967666f6d6365726c6170326978717276736f3665653261767772667a7435667971356371697273716568706f66677a76707961712f4163726f62617469635f53696c6b795f416e696d655f496e666f626f782e7765627000000000000000000000",
        "nonce": "0xd",
        "chainId": "0xaa36a7"
      },
      "additionalContracts": [],
      "isFixedGasLimit": false
    },
    {
      "hash": "0xb57a5e1cc9ff75fb67b8ccb27e13a2f4fcef46e604420a2e12806842dfeb49f6",
      "transactionType": "CALL",
      "contractName": null,
      "contractAddress": "0x3601829f59f17c475e305ac12d1b956b445d0876",
      "function": "mintNFT(address,string)",
      "arguments": [
        "0xA6cD042740CFabDA78dB63d61b36526202b13b21",
        "https://aqua-rear-tyrannosaurus-290.mypinata.cloud/ipfs/bafybeigfomcerlap2ixqrvso6ee2avwrfzt5fyq5cqirsqehpofgzvpyaq/Aira_Shiratori_Anime_Infobox_2.webp"
      ],
      "transaction": {
        "from": "0xa6cd042740cfabda78db63d61b36526202b13b21",
        "to": "0x3601829f59f17c475e305ac12d1b956b445d0876",
        "gas": "0x41a90",
        "value": "0x0",
        "input": "0xeacabe14000000000000000000000000a6cd042740cfabda78db63d61b36526202b13b210000000000000000000000000000000000000000000000000000000000000040000000000000000000000000000000000000000000000000000000000000009768747470733a2f2f617175612d726561722d747972616e6e6f7361757275732d3239302e6d7970696e6174612e636c6f75642f697066732f6261667962656967666f6d6365726c6170326978717276736f3665653261767772667a7435667971356371697273716568706f66677a76707961712f416972615f5368697261746f72695f416e696d655f496e666f626f785f322e77656270000000000000000000",
        "nonce": "0xe",
        "chainId": "0xaa36a7"
      },
      "additionalContracts": [],
      "isFixedGasLimit": false
    },
    {
      "hash": "0xd416c88b5b25356b8a3c41fbbd1e92b0408a028ee4b32e8c80530997ef959bf5",
      "transactionType": "CALL",
      "contractName": null,
      "contractAddress": "0x3601829f59f17c475e305ac12d1b956b445d0876",
      "function": "mintNFT(address,string)",
      "arguments": [
        "0xA6cD042740CFabDA78dB63d61b36526202b13b21",
        "https://aqua-rear-tyrannosaurus-290.mypinata.cloud/ipfs/bafybeigfomcerlap2ixqrvso6ee2avwrfzt5fyq5cqirsqehpofgzvpyaq/Flatwoods_Monster_full_appearance.webp"
      ],
      "transaction": {
        "from": "0xa6cd042740cfabda78db63d61b36526202b13b21",
        "to": "0x3601829f59f17c475e305ac12d1b956b445d0876",
        "gas": "0x45891",
        "value": "0x0",
        "input": "0xeacabe14000000000000000000000000a6cd042740cfabda78db63d61b36526202b13b210000000000000000000000000000000000000000000000000000000000000040000000000000000000000000000000000000000000000000000000000000009a68747470733a2f2f617175612d726561722d747972616e6e6f7361757275732d3239302e6d7970696e6174612e636c6f75642f697066732f6261667962656967666f6d6365726c6170326978717276736f3665653261767772667a7435667971356371697273716568706f66677a76707961712f466c6174776f6f64735f4d6f6e737465725f66756c6c5f617070656172616e63652e77656270000000000000",
        "nonce": "0xf",
        "chainId": "0xaa36a7"
      },
      "additionalContracts": [],
      "isFixedGasLimit": false
    },
    {
      "hash": "0x5a48dd24a212ba4b97b4589b6156ee6cea077600dc28a11655fe549ebf51311c",
      "transactionType": "CALL",
      "contractName": null,
      "contractAddress": "0x3601829f59f17c475e305ac12d1b956b445d0876",
      "function": "mintNFT(address,string)",
      "arguments": [
        "0xA6cD042740CFabDA78dB63d61b36526202b13b21",
        "https://aqua-rear-tyrannosaurus-290.mypinata.cloud/ipfs/bafybeigfomcerlap2ixqrvso6ee2avwrfzt5fyq5cqirsqehpofgzvpyaq/Jiji_Anime_Infobox.webp"
      ],
      "transaction": {
        "from": "0xa6cd042740cfabda78db63d61b36526202b13b21",
        "to": "0x3601829f59f17c475e305ac12d1b956b445d0876",
        "gas": "0x419c9",
        "value": "0x0",
        "input": "0xeacabe14000000000000000000000000a6cd042740cfabda78db63d61b36526202b13b210000000000000000000000000000000000000000000000000000000000000040000000000000000000000000000000000000000000000000000000000000008b68747470733a2f2f617175612d726561722d747972616e6e6f7361757275732d3239302e6d7970696e6174612e636c6f75642f697066732f6261667962656967666f6d6365726c6170326978717276736f3665653261767772667a7435667971356371697273716568706f66677a76707961712f4a696a695f416e696d655f496e666f626f782e77656270000000000000000000000000000000000000000000",
        "nonce": "0x10",
        "chainId": "0xaa36a7"
      },
      "additionalContracts": [],
      "isFixedGasLimit": false
    },
    {
      "hash": "0x789a4ce94232da807ad59d990cd7a6082adec6f8f60a7f63242609ccb5ab6c57",
      "transactionType": "CALL",
      "contractName": null,
      "contractAddress": "0x3601829f59f17c475e305ac12d1b956b445d0876",
      "function": "mintNFT(address,string)",
      "arguments": [
        "0xA6cD042740CFabDA78dB63d61b36526202b13b21",
        "https://aqua-rear-tyrannosaurus-290.mypinata.cloud/ipfs/bafybeigfomcerlap2ixqrvso6ee2avwrfzt5fyq5cqirsqehpofgzvpyaq/Mantis_Shrimp_Alien_Form_%2528Anime%2529.webp"
      ],
      "transaction": {
        "from": "0xa6cd042740cfabda78db63d61b36526202b13b21",
        "to": "0x3601829f59f17c475e305ac12d1b956b445d0876",
        "gas": "0x493a1",
        "value": "0x0",
        "input": "0xeacabe14000000000000000000000000a6cd042740cfabda78db63d61b36526202b13b21000000000000000000000000000000000000000000000000000000000000004000000000000000000000000000000000000000000000000000000000000000a168747470733a2f2f617175612d726561722d747972616e6e6f7361757275732d3239302e6d7970696e6174612e636c6f75642f697066732f6261667962656967666f6d6365726c6170326978717276736f3665653261767772667a7435667971356371697273716568706f66677a76707961712f4d616e7469735f536872696d705f416c69656e5f466f726d5f2532353238416e696d6525323532392e7765627000000000000000000000000000000000000000000000000000000000000000",
        "nonce": "0x11",
        "chainId": "0xaa36a7"
      },
      "additionalContracts": [],
      "isFixedGasLimit": false
    },
    {
      "hash": "0x38351e95a005684a0ca70917542d6654887abe10d85e71d2b33d9ab62a66729d",
      "transactionType": "CALL",
      "contractName": null,
      "contractAddress": "0x3601829f59f17c475e305ac12d1b956b445d0876",
      "function": "mintNFT(address,string)",
      "arguments": [
        "0xA6cD042740CFabDA78dB63d61b36526202b13b21",
        "https://aqua-rear-tyrannosaurus-290.mypinata.cloud/ipfs/bafybeigfomcerlap2ixqrvso6ee2avwrfzt5fyq5cqirsqehpofgzvpyaq/Momo_Ayase_Anime_Infobox_2.webp"
      ],
      "transaction": {
        "from": "0xa6cd042740cfabda78db63d61b36526202b13b21",
        "to": "0x3601829f59f17c475e305ac12d1b956b445d0876",
        "gas": "0x41a4d",
        "value": "0x0",
        "input": "0xeacabe14000000000000000000000000a6cd042740cfabda78db63d61b36526202b13b210000000000000000000000000000000000000000000000000000000000000040000000000000000000000000000000000000000000000000000000000000009368747470733a2f2f617175612d726561722d747972616e6e6f7361757275732d3239302e6d7970696e6174612e636c6f75642f697066732f6261667962656967666f6d6365726c6170326978717276736f3665653261767772667a7435667971356371697273716568706f66677a76707961712f4d6f6d6f5f41796173655f416e696d655f496e666f626f785f322e7765627000000000000000000000000000",
        "nonce": "0x12",
        "chainId": "0xaa36a7"
      },
      "additionalContracts": [],
      "isFixedGasLimit": false
    },
    {
      "hash": "0xe8633a5e810cd01962882abb1d7669718543349223befed91f284596084f4b37",
      "transactionType": "CALL",
      "contractName": null,
      "contractAddress": "0x3601829f59f17c475e305ac12d1b956b445d0876",
      "function": "mintNFT(address,string)",
      "arguments": [
        "0xA6cD042740CFabDA78dB63d61b36526202b13b21",
        "https://aqua-rear-tyrannosaurus-290.mypinata.cloud/ipfs/bafybeigfomcerlap2ixqrvso6ee2avwrfzt5fyq5cqirsqehpofgzvpyaq/Okarun%2527s_Turbo_Granny_Form.webp"
      ],
      "transaction": {
        "from": "0xa6cd042740cfabda78db63d61b36526202b13b21",
        "to": "0x3601829f59f17c475e305ac12d1b956b445d0876",
        "gas": "0x41a90",
        "value": "0x0",
        "input": "0xeacabe14000000000000000000000000a6cd042740cfabda78db63d61b36526202b13b210000000000000000000000000000000000000000000000000000000000000040000000000000000000000000000000000000000000000000000000000000009768747470733a2f2f617175612d726561722d747972616e6e6f7361757275732d3239302e6d7970696e6174612e636c6f75642f697066732f6261667962656967666f6d6365726c6170326978717276736f3665653261767772667a7435667971356371697273716568706f66677a76707961712f4f6b6172756e2532353237735f547572626f5f4772616e6e795f466f726d2e77656270000000000000000000",
        "nonce": "0x13",
        "chainId": "0xaa36a7"
      },
      "additionalContracts": [],
      "isFixedGasLimit": false
    },
    {
      "hash": "0xe61fe4040f8c29f1def06a4d74d3e09b2de65b48c1d5741ef98b406c6419b393",
      "transactionType": "CALL",
      "contractName": null,
      "contractAddress": "0x3601829f59f17c475e305ac12d1b956b445d0876",
      "function": "mintNFT(address,string)",
      "arguments": [
        "0xA6cD042740CFabDA78dB63d61b36526202b13b21",
        "https://aqua-rear-tyrannosaurus-290.mypinata.cloud/ipfs/bafybeigfomcerlap2ixqrvso6ee2avwrfzt5fyq5cqirsqehpofgzvpyaq/Okarun_Anime_Infobox_2.webp"
      ],
      "transaction": {
        "from": "0xa6cd042740cfabda78db63d61b36526202b13b21",
        "to": "0x3601829f59f17c475e305ac12d1b956b445d0876",
        "gas": "0x41a0b",
        "value": "0x0",
        "input": "0xeacabe14000000000000000000000000a6cd042740cfabda78db63d61b36526202b13b210000000000000000000000000000000000000000000000000000000000000040000000000000000000000000000000000000000000000000000000000000008f68747470733a2f2f617175612d726561722d747972616e6e6f7361757275732d3239302e6d7970696e6174612e636c6f75642f697066732f6261667962656967666f6d6365726c6170326978717276736f3665653261767772667a7435667971356371697273716568706f66677a76707961712f4f6b6172756e5f416e696d655f496e666f626f785f322e776562700000000000000000000000000000000000",
        "nonce": "0x14",
        "chainId": "0xaa36a7"
      },
      "additionalContracts": [],
      "isFixedGasLimit": false
    },
    {
      "hash": "0x473430e22d3f2355865ac0435ab4947d792d918d34b83885e12e4f067315985b",
      "transactionType": "CALL",
      "contractName": null,
      "contractAddress": "0x3601829f59f17c475e305ac12d1b956b445d0876",
      "function": "mintNFT(address,string)",
      "arguments": [
        "0xA6cD042740CFabDA78dB63d61b36526202b13b21",
        "https://aqua-rear-tyrannosaurus-290.mypinata.cloud/ipfs/bafybeigfomcerlap2ixqrvso6ee2avwrfzt5fyq5cqirsqehpofgzvpyaq/Seiko_Ayase_Anime_Infobox.webp"
      ],
      "transaction": {
        "from": "0xa6cd042740cfabda78db63d61b36526202b13b21",
        "to": "0x3601829f59f17c475e305ac12d1b956b445d0876",
        "gas": "0x45804",
        "value": "0x0",
        "input": "0xeacabe14000000000000000000000000a6cd042740cfabda78db63d61b36526202b13b210000000000000000000000000000000000000000000000000000000000000040000000000000000000000000000000000000000000000000000000000000009268747470733a2f2f617175612d726561722d747972616e6e6f7361757275732d3239302e6d7970696e6174612e636c6f75642f697066732f6261667962656967666f6d6365726c6170326978717276736f3665653261767772667a7435667971356371697273716568706f66677a76707961712f5365696b6f5f41796173655f416e696d655f496e666f626f782e776562700000000000000000000000000000",
        "nonce": "0x15",
        "chainId": "0xaa36a7"
      },
      "additionalContracts": [],
      "isFixedGasLimit": false
    },
    {
      "hash": "0x27fd0ec720e2c0b790dec470bdf9d961828af94efacd331858ffb72c7f4434a8",
      "transactionType": "CALL",
      "contractName": null,
      "contractAddress": "0x3601829f59f17c475e305ac12d1b956b445d0876",
      "function": "mintNFT(address,string)",
      "arguments": [
        "0xA6cD042740CFabDA78dB63d61b36526202b13b21",
        "https://aqua-rear-tyrannosaurus-290.mypinata.cloud/ipfs/bafybeigfomcerlap2ixqrvso6ee2avwrfzt5fyq5cqirsqehpofgzvpyaq/Serpo_Reproductive_Tool.webp"
      ],
      "transaction": {
        "from": "0xa6cd042740cfabda78db63d61b36526202b13b21",
        "to": "0x3601829f59f17c475e305ac12d1b956b445d0876",
        "gas": "0x457e1",
        "value": "0x0",
        "input": "0xeacabe14000000000000000000000000a6cd042740cfabda78db63d61b36526202b13b210000000000000000000000000000000000000000000000000000000000000040000000000000000000000000000000000000000000000000000000000000009068747470733a2f2f617175612d726561722d747972616e6e6f7361757275732d3239302e6d7970696e6174612e636c6f75642f697066732f6261667962656967666f6d6365726c6170326978717276736f3665653261767772667a7435667971356371697273716568706f66677a76707961712f536572706f5f526570726f647563746976655f546f6f6c2e7765627000000000000000000000000000000000",
        "nonce": "0x16",
        "chainId": "0xaa36a7"
      },
      "additionalContracts": [],
      "isFixedGasLimit": false
    },
    {
      "hash": "0x7645bc5905d8f94445f3601edd24ec68d2b5afe5e2379c0009f3ea758f945a29",
      "transactionType": "CALL",
      "contractName": null,
      "contractAddress": "0x3601829f59f17c475e305ac12d1b956b445d0876",
      "function": "mintNFT(address,string)",
      "arguments": [
        "0xA6cD042740CFabDA78dB63d61b36526202b13b21",
        "https://aqua-rear-tyrannosaurus-290.mypinata.cloud/ipfs/bafybeigfomcerlap2ixqrvso6ee2avwrfzt5fyq5cqirsqehpofgzvpyaq/Turbo_Granny_%2528Doll%2529_Infobox_%2528Anime%2529.webp"
      ],
      "transaction": {
        "from": "0xa6cd042740cfabda78db63d61b36526202b13b21",
        "to": "0x3601829f59f17c475e305ac12d1b956b445d0876",
        "gas": "0x4d94e",
        "value": "0x0",
        "input": "0xeacabe14000000000000000000000000a6cd042740cfabda78db63d61b36526202b13b21000000000000000000000000000000000000000000000000000000000000004000000000000000000000000000000000000000000000000000000000000000ac68747470733a2f2f617175612d726561722d747972616e6e6f7361757275732d3239302e6d7970696e6174612e636c6f75642f697066732f6261667962656967666f6d6365726c6170326978717276736f3665653261767772667a7435667971356371697273716568706f66677a76707961712f547572626f5f4772616e6e795f2532353238446f6c6c25323532395f496e666f626f785f2532353238416e696d6525323532392e776562700000000000000000000000000000000000000000",
        "nonce": "0x17",
        "chainId": "0xaa36a7"
      },
      "additionalContracts": [],
      "isFixedGasLimit": false
    },
    {
      "hash": "0x624fcb8e9025dacc1ae405d956177909c63e2b4a74271b4468f0dfe7f66be698",
      "transactionType": "CALL",
      "contractName": null,
      "contractAddress": "0x3601829f59f17c475e305ac12d1b956b445d0876",
      "function": "mintNFT(address,string)",
      "arguments": [
        "0xA6cD042740CFabDA78dB63d61b36526202b13b21",
        "https://aqua-rear-tyrannosaurus-290.mypinata.cloud/ipfs/bafybeigfomcerlap2ixqrvso6ee2avwrfzt5fyq5cqirsqehpofgzvpyaq/Unji_Zuma_Infobox.webp"
      ],
      "transaction": {
        "from": "0xa6cd042740cfabda78db63d61b36526202b13b21",
        "to": "0x3601829f59f17c475e305ac12d1b956b445d0876",
        "gas": "0x45778",
        "value": "0x0",
        "input": "0xeacabe14000000000000000000000000a6cd042740cfabda78db63d61b36526202b13b210000000000000000000000000000000000000000000000000000000000000040000000000000000000000000000000000000000000000000000000000000008a68747470733a2f2f617175612d726561722d747972616e6e6f7361757275732d3239302e6d7970696e6174612e636c6f75642f697066732f6261667962656967666f6d6365726c6170326978717276736f3665653261767772667a7435667971356371697273716568706f66677a76707961712f556e6a695f5a756d615f496e666f626f782e7765627000000000000000000000000000000000000000000000",
        "nonce": "0x18",
        "chainId": "0xaa36a7"
      },
      "additionalContracts": [],
      "isFixedGasLimit": false
    }
  ],
  "receipts": [
    {
      "status": "0x1",
      "cumulativeGasUsed": "0x1094507",
      "logs": [
        {
          "address": "0x3601829f59f17c475e305ac12d1b956b445d0876",
          "topics": [
            "0xddf252ad1be2c89b69c2b068fc378daa952ba7f163c4a11628f55a4df523b3ef",
            "0x0000000000000000000000000000000000000000000000000000000000000000",
            "0x000000000000000000000000a6cd042740cfabda78db63d61b36526202b13b21",
            "0x0000000000000000000000000000000000000000000000000000000000000001"
          ],
          "data": "0x",
          "blockHash": "0xc1a2e20e2fdd5348c313f59d103b21237b8830df70e5a4cace7832014cb4bb4c",
          "blockNumber": "0x72b8c9",
          "transactionHash": "0x0568236598f64dd94c4fb89964fb023809482f57c830eb2ea9b01afedf4c1b2d",
          "transactionIndex": "0x7b",
          "logIndex": "0xb8",
          "removed": false
        },
        {
          "address": "0x3601829f59f17c475e305ac12d1b956b445d0876",
          "topics": [
            "0xf8e1a15aba9398e019f0b49df1a4fde98ee17ae345cb5f6b5e2c27f5033e8ce7"
          ],
          "data": "0x0000000000000000000000000000000000000000000000000000000000000001",
          "blockHash": "0xc1a2e20e2fdd5348c313f59d103b21237b8830df70e5a4cace7832014cb4bb4c",
          "blockNumber": "0x72b8c9",
          "transactionHash": "0x0568236598f64dd94c4fb89964fb023809482f57c830eb2ea9b01afedf4c1b2d",
          "transactionIndex": "0x7b",
          "logIndex": "0xb9",
          "removed": false
        }
      ],
      "logsBloom": "0x00000000000000000000000000000000000000000000000000000000000000000000000000000000000000000004000000000000000000000000000000040008000000000000000000000008000000000000000000040000000000000000000000000000020000000000000000000800000000000000000000000010000000200000000000000000008000000000000000000000000000000000000000000000000000000000000000000000000000002000000000000000000000000400008000000002000000000000000000000000000000000000000000000000000060000000000000000800200000000000000000000000000000000000000000000000",
      "type": "0x2",
      "transactionHash": "0x0568236598f64dd94c4fb89964fb023809482f57c830eb2ea9b01afedf4c1b2d",
      "transactionIndex": "0x7b",
      "blockHash": "0xc1a2e20e2fdd5348c313f59d103b21237b8830df70e5a4cace7832014cb4bb4c",
      "blockNumber": "0x72b8c9",
      "gasUsed": "0x37e23",
      "effectiveGasPrice": "0x64bca4b7",
      "from": "0xa6cd042740cfabda78db63d61b36526202b13b21",
      "to": "0x3601829f59f17c475e305ac12d1b956b445d0876",
      "contractAddress": null
    },
    {
      "status": "0x1",
      "cumulativeGasUsed": "0x110a053",
      "logs": [
        {
          "address": "0x3601829f59f17c475e305ac12d1b956b445d0876",
          "topics": [
            "0xddf252ad1be2c89b69c2b068fc378daa952ba7f163c4a11628f55a4df523b3ef",
            "0x0000000000000000000000000000000000000000000000000000000000000000",
            "0x000000000000000000000000a6cd042740cfabda78db63d61b36526202b13b21",
            "0x0000000000000000000000000000000000000000000000000000000000000002"
          ],
          "data": "0x",
          "blockHash": "0xc1a2e20e2fdd5348c313f59d103b21237b8830df70e5a4cace7832014cb4bb4c",
          "blockNumber": "0x72b8c9",
          "transactionHash": "0xb57a5e1cc9ff75fb67b8ccb27e13a2f4fcef46e604420a2e12806842dfeb49f6",
          "transactionIndex": "0x7f",
          "logIndex": "0xbd",
          "removed": false
        },
        {
          "address": "0x3601829f59f17c475e305ac12d1b956b445d0876",
          "topics": [
            "0xf8e1a15aba9398e019f0b49df1a4fde98ee17ae345cb5f6b5e2c27f5033e8ce7"
          ],
          "data": "0x0000000000000000000000000000000000000000000000000000000000000002",
          "blockHash": "0xc1a2e20e2fdd5348c313f59d103b21237b8830df70e5a4cace7832014cb4bb4c",
          "blockNumber": "0x72b8c9",
          "transactionHash": "0xb57a5e1cc9ff75fb67b8ccb27e13a2f4fcef46e604420a2e12806842dfeb49f6",
          "transactionIndex": "0x7f",
          "logIndex": "0xbe",
          "removed": false
        }
      ],
      "logsBloom": "0x04000000000000000000000000000000000000000000000000000000000000000000000000000000000000000004000000000000000000000000000000000008000000000000000000000008000000000000000000000000000000000000000000000000020000000000000000000800000000000000000000000010000000200000000000000000008000000000000000000000000000000000000000000000000000000000000000000100000000002000000000000000000000000400008000000002000000000000000000000000000000000000000000000000000020000000000000000800200000000000000000000000008000000000000000000000",
      "type": "0x2",
      "transactionHash": "0xb57a5e1cc9ff75fb67b8ccb27e13a2f4fcef46e604420a2e12806842dfeb49f6",
      "transactionIndex": "0x7f",
      "blockHash": "0xc1a2e20e2fdd5348c313f59d103b21237b8830df70e5a4cace7832014cb4bb4c",
      "blockNumber": "0x72b8c9",
      "gasUsed": "0x2f897",
      "effectiveGasPrice": "0x64bca4b7",
      "from": "0xa6cd042740cfabda78db63d61b36526202b13b21",
      "to": "0x3601829f59f17c475e305ac12d1b956b445d0876",
      "contractAddress": null
    },
    {
      "status": "0x1",
      "cumulativeGasUsed": "0x113990e",
      "logs": [
        {
          "address": "0x3601829f59f17c475e305ac12d1b956b445d0876",
          "topics": [
            "0xddf252ad1be2c89b69c2b068fc378daa952ba7f163c4a11628f55a4df523b3ef",
            "0x0000000000000000000000000000000000000000000000000000000000000000",
            "0x000000000000000000000000a6cd042740cfabda78db63d61b36526202b13b21",
            "0x0000000000000000000000000000000000000000000000000000000000000003"
          ],
          "data": "0x",
          "blockHash": "0xc1a2e20e2fdd5348c313f59d103b21237b8830df70e5a4cace7832014cb4bb4c",
          "blockNumber": "0x72b8c9",
          "transactionHash": "0xd416c88b5b25356b8a3c41fbbd1e92b0408a028ee4b32e8c80530997ef959bf5",
          "transactionIndex": "0x80",
          "logIndex": "0xbf",
          "removed": false
        },
        {
          "address": "0x3601829f59f17c475e305ac12d1b956b445d0876",
          "topics": [
            "0xf8e1a15aba9398e019f0b49df1a4fde98ee17ae345cb5f6b5e2c27f5033e8ce7"
          ],
          "data": "0x0000000000000000000000000000000000000000000000000000000000000003",
          "blockHash": "0xc1a2e20e2fdd5348c313f59d103b21237b8830df70e5a4cace7832014cb4bb4c",
          "blockNumber": "0x72b8c9",
          "transactionHash": "0xd416c88b5b25356b8a3c41fbbd1e92b0408a028ee4b32e8c80530997ef959bf5",
          "transactionIndex": "0x80",
          "logIndex": "0xc0",
          "removed": false
        }
      ],
      "logsBloom": "0x00000000000000000000000000000000000000000000000000000000000000000000000000000000000000000004000000000000020000000000000000000008000000000000000000000008000000000000000000000000000000000000000000000000020000000000000000000800000000000000000000000010000000200000000000000000008000000000000000000000000000000000000000000000000000000000000000000000000000002000000000800000000000000400408000000002000000000000000000000000000000000000000000000000000020000000000000000800200000000000000000000000000000000000000000000000",
      "type": "0x2",
      "transactionHash": "0xd416c88b5b25356b8a3c41fbbd1e92b0408a028ee4b32e8c80530997ef959bf5",
      "transactionIndex": "0x80",
      "blockHash": "0xc1a2e20e2fdd5348c313f59d103b21237b8830df70e5a4cace7832014cb4bb4c",
      "blockNumber": "0x72b8c9",
      "gasUsed": "0x2f8bb",
      "effectiveGasPrice": "0x64bca4b7",
      "from": "0xa6cd042740cfabda78db63d61b36526202b13b21",
      "to": "0x3601829f59f17c475e305ac12d1b956b445d0876",
      "contractAddress": null
    },
    {
      "status": "0x1",
      "cumulativeGasUsed": "0x1169115",
      "logs": [
        {
          "address": "0x3601829f59f17c475e305ac12d1b956b445d0876",
          "topics": [
            "0xddf252ad1be2c89b69c2b068fc378daa952ba7f163c4a11628f55a4df523b3ef",
            "0x0000000000000000000000000000000000000000000000000000000000000000",
            "0x000000000000000000000000a6cd042740cfabda78db63d61b36526202b13b21",
            "0x0000000000000000000000000000000000000000000000000000000000000004"
          ],
          "data": "0x",
          "blockHash": "0xc1a2e20e2fdd5348c313f59d103b21237b8830df70e5a4cace7832014cb4bb4c",
          "blockNumber": "0x72b8c9",
          "transactionHash": "0x5a48dd24a212ba4b97b4589b6156ee6cea077600dc28a11655fe549ebf51311c",
          "transactionIndex": "0x81",
          "logIndex": "0xc1",
          "removed": false
        },
        {
          "address": "0x3601829f59f17c475e305ac12d1b956b445d0876",
          "topics": [
            "0xf8e1a15aba9398e019f0b49df1a4fde98ee17ae345cb5f6b5e2c27f5033e8ce7"
          ],
          "data": "0x0000000000000000000000000000000000000000000000000000000000000004",
          "blockHash": "0xc1a2e20e2fdd5348c313f59d103b21237b8830df70e5a4cace7832014cb4bb4c",
          "blockNumber": "0x72b8c9",
          "transactionHash": "0x5a48dd24a212ba4b97b4589b6156ee6cea077600dc28a11655fe549ebf51311c",
          "transactionIndex": "0x81",
          "logIndex": "0xc2",
          "removed": false
        }
      ],
      "logsBloom": "0x00000000000000000000000000000000000000000000000000000000000000000000000000000000000000000004000000000000000000000000000000000008000000000000000000000008000000000000000000000000000000000000000008000000020000000000000000000800000000000000000000000010000000200000000000000000008000000000000000000000000000000000000000000000000000000000000000000000000000002000000000000000002000000400008000000002000000000000000000000000000000008000000000000000000020000000000000000800200000000000000000000000000000000000000000000000",
      "type": "0x2",
      "transactionHash": "0x5a48dd24a212ba4b97b4589b6156ee6cea077600dc28a11655fe549ebf51311c",
      "transactionIndex": "0x81",
      "blockHash": "0xc1a2e20e2fdd5348c313f59d103b21237b8830df70e5a4cace7832014cb4bb4c",
      "blockNumber": "0x72b8c9",
      "gasUsed": "0x2f807",
      "effectiveGasPrice": "0x64bca4b7",
      "from": "0xa6cd042740cfabda78db63d61b36526202b13b21",
      "to": "0x3601829f59f17c475e305ac12d1b956b445d0876",
      "contractAddress": null
    },
    {
      "status": "0x1",
      "cumulativeGasUsed": "0x119e153",
      "logs": [
        {
          "address": "0x3601829f59f17c475e305ac12d1b956b445d0876",
          "topics": [
            "0xddf252ad1be2c89b69c2b068fc378daa952ba7f163c4a11628f55a4df523b3ef",
            "0x0000000000000000000000000000000000000000000000000000000000000000",
            "0x000000000000000000000000a6cd042740cfabda78db63d61b36526202b13b21",
            "0x0000000000000000000000000000000000000000000000000000000000000005"
          ],
          "data": "0x",
          "blockHash": "0xc1a2e20e2fdd5348c313f59d103b21237b8830df70e5a4cace7832014cb4bb4c",
          "blockNumber": "0x72b8c9",
          "transactionHash": "0x789a4ce94232da807ad59d990cd7a6082adec6f8f60a7f63242609ccb5ab6c57",
          "transactionIndex": "0x82",
          "logIndex": "0xc3",
          "removed": false
        },
        {
          "address": "0x3601829f59f17c475e305ac12d1b956b445d0876",
          "topics": [
            "0xf8e1a15aba9398e019f0b49df1a4fde98ee17ae345cb5f6b5e2c27f5033e8ce7"
          ],
          "data": "0x0000000000000000000000000000000000000000000000000000000000000005",
          "blockHash": "0xc1a2e20e2fdd5348c313f59d103b21237b8830df70e5a4cace7832014cb4bb4c",
          "blockNumber": "0x72b8c9",
          "transactionHash": "0x789a4ce94232da807ad59d990cd7a6082adec6f8f60a7f63242609ccb5ab6c57",
          "transactionIndex": "0x82",
          "logIndex": "0xc4",
          "removed": false
        }
      ],
      "logsBloom": "0x00000000000000000000000000000000000000000000000000000000000000000000000000000000000000000004000000000000000000000000000000000008000010000000000000000008000000000000000000000000000000000000000000000000020000000000000000000800000000000000000000000010000000200000000000000000008000000000001000000800000000000000000000000000000000000000000000000000000000002000000000000000000000000400008000000002000000000000000000000000000000000000000000000000000020000000000000000800200000000000000000000000000000000000000000000000",
      "type": "0x2",
      "transactionHash": "0x789a4ce94232da807ad59d990cd7a6082adec6f8f60a7f63242609ccb5ab6c57",
      "transactionIndex": "0x82",
      "blockHash": "0xc1a2e20e2fdd5348c313f59d103b21237b8830df70e5a4cace7832014cb4bb4c",
      "blockNumber": "0x72b8c9",
      "gasUsed": "0x3503e",
      "effectiveGasPrice": "0x64bca4b7",
      "from": "0xa6cd042740cfabda78db63d61b36526202b13b21",
      "to": "0x3601829f59f17c475e305ac12d1b956b445d0876",
      "contractAddress": null
    },
    {
      "status": "0x1",
      "cumulativeGasUsed": "0x11cd9ba",
      "logs": [
        {
          "address": "0x3601829f59f17c475e305ac12d1b956b445d0876",
          "topics": [
            "0xddf252ad1be2c89b69c2b068fc378daa952ba7f163c4a11628f55a4df523b3ef",
            "0x0000000000000000000000000000000000000000000000000000000000000000",
            "0x000000000000000000000000a6cd042740cfabda78db63d61b36526202b13b21",
            "0x0000000000000000000000000000000000000000000000000000000000000006"
          ],
          "data": "0x",
          "blockHash": "0xc1a2e20e2fdd5348c313f59d103b21237b8830df70e5a4cace7832014cb4bb4c",
          "blockNumber": "0x72b8c9",
          "transactionHash": "0x38351e95a005684a0ca70917542d6654887abe10d85e71d2b33d9ab62a66729d",
          "transactionIndex": "0x83",
          "logIndex": "0xc5",
          "removed": false
        },
        {
          "address": "0x3601829f59f17c475e305ac12d1b956b445d0876",
          "topics": [
            "0xf8e1a15aba9398e019f0b49df1a4fde98ee17ae345cb5f6b5e2c27f5033e8ce7"
          ],
          "data": "0x0000000000000000000000000000000000000000000000000000000000000006",
          "blockHash": "0xc1a2e20e2fdd5348c313f59d103b21237b8830df70e5a4cace7832014cb4bb4c",
          "blockNumber": "0x72b8c9",
          "transactionHash": "0x38351e95a005684a0ca70917542d6654887abe10d85e71d2b33d9ab62a66729d",
          "transactionIndex": "0x83",
          "logIndex": "0xc6",
          "removed": false
        }
      ],
      "logsBloom": "0x00000000000000000000000000000000000000000000000000000000000000000000000000000000000000000004000000000000000400000000000000000008000000000000000000000008000000000000000000000000000000000000000000000000020000000000000000000800000000000000000000000010000000200000000400000000008000000000000000000000000000000000000000000000000000000000000000000000000000002000000000000000000000080400008000000002000000000000000000000000000000000000000000000000000020000000000000000800200000000000000000000000000000000000000000000000",
      "type": "0x2",
      "transactionHash": "0x38351e95a005684a0ca70917542d6654887abe10d85e71d2b33d9ab62a66729d",
      "transactionIndex": "0x83",
      "blockHash": "0xc1a2e20e2fdd5348c313f59d103b21237b8830df70e5a4cace7832014cb4bb4c",
      "blockNumber": "0x72b8c9",
      "gasUsed": "0x2f867",
      "effectiveGasPrice": "0x64bca4b7",
      "from": "0xa6cd042740cfabda78db63d61b36526202b13b21",
      "to": "0x3601829f59f17c475e305ac12d1b956b445d0876",
      "contractAddress": null
    },
    {
      "status": "0x1",
      "cumulativeGasUsed": "0x11fd251",
      "logs": [
        {
          "address": "0x3601829f59f17c475e305ac12d1b956b445d0876",
          "topics": [
            "0xddf252ad1be2c89b69c2b068fc378daa952ba7f163c4a11628f55a4df523b3ef",
            "0x0000000000000000000000000000000000000000000000000000000000000000",
            "0x000000000000000000000000a6cd042740cfabda78db63d61b36526202b13b21",
            "0x0000000000000000000000000000000000000000000000000000000000000007"
          ],
          "data": "0x",
          "blockHash": "0xc1a2e20e2fdd5348c313f59d103b21237b8830df70e5a4cace7832014cb4bb4c",
          "blockNumber": "0x72b8c9",
          "transactionHash": "0xe8633a5e810cd01962882abb1d7669718543349223befed91f284596084f4b37",
          "transactionIndex": "0x84",
          "logIndex": "0xc7",
          "removed": false
        },
        {
          "address": "0x3601829f59f17c475e305ac12d1b956b445d0876",
          "topics": [
            "0xf8e1a15aba9398e019f0b49df1a4fde98ee17ae345cb5f6b5e2c27f5033e8ce7"
          ],
          "data": "0x0000000000000000000000000000000000000000000000000000000000000007",
          "blockHash": "0xc1a2e20e2fdd5348c313f59d103b21237b8830df70e5a4cace7832014cb4bb4c",
          "blockNumber": "0x72b8c9",
          "transactionHash": "0xe8633a5e810cd01962882abb1d7669718543349223befed91f284596084f4b37",
          "transactionIndex": "0x84",
          "logIndex": "0xc8",
          "removed": false
        }
      ],
      "logsBloom": "0x00000000000000000000000000000000000000000000000000000000000000000000000000000000000000000004000000001000000000000000000000000008000020000000000000000008000000000000000000000000000000000000000000000000020000000000000000000800000000000000000000000010000000200000000000000000008000000000000000000000000000000000000000000000000000000000000000000000000000002000000000000000000000000400008000000002000000000000000000000000000000000000000000000100000020000000000000000800200000000000000000000000000000000000000000000000",
      "type": "0x2",
      "transactionHash": "0xe8633a5e810cd01962882abb1d7669718543349223befed91f284596084f4b37",
      "transactionIndex": "0x84",
      "blockHash": "0xc1a2e20e2fdd5348c313f59d103b21237b8830df70e5a4cace7832014cb4bb4c",
      "blockNumber": "0x72b8c9",
      "gasUsed": "0x2f897",
      "effectiveGasPrice": "0x64bca4b7",
      "from": "0xa6cd042740cfabda78db63d61b36526202b13b21",
      "to": "0x3601829f59f17c475e305ac12d1b956b445d0876",
      "contractAddress": null
    },
    {
      "status": "0x1",
      "cumulativeGasUsed": "0x122ca88",
      "logs": [
        {
          "address": "0x3601829f59f17c475e305ac12d1b956b445d0876",
          "topics": [
            "0xddf252ad1be2c89b69c2b068fc378daa952ba7f163c4a11628f55a4df523b3ef",
            "0x0000000000000000000000000000000000000000000000000000000000000000",
            "0x000000000000000000000000a6cd042740cfabda78db63d61b36526202b13b21",
            "0x0000000000000000000000000000000000000000000000000000000000000008"
          ],
          "data": "0x",
          "blockHash": "0xc1a2e20e2fdd5348c313f59d103b21237b8830df70e5a4cace7832014cb4bb4c",
          "blockNumber": "0x72b8c9",
          "transactionHash": "0xe61fe4040f8c29f1def06a4d74d3e09b2de65b48c1d5741ef98b406c6419b393",
          "transactionIndex": "0x85",
          "logIndex": "0xc9",
          "removed": false
        },
        {
          "address": "0x3601829f59f17c475e305ac12d1b956b445d0876",
          "topics": [
            "0xf8e1a15aba9398e019f0b49df1a4fde98ee17ae345cb5f6b5e2c27f5033e8ce7"
          ],
          "data": "0x0000000000000000000000000000000000000000000000000000000000000008",
          "blockHash": "0xc1a2e20e2fdd5348c313f59d103b21237b8830df70e5a4cace7832014cb4bb4c",
          "blockNumber": "0x72b8c9",
          "transactionHash": "0xe61fe4040f8c29f1def06a4d74d3e09b2de65b48c1d5741ef98b406c6419b393",
          "transactionIndex": "0x85",
          "logIndex": "0xca",
          "removed": false
        }
      ],
      "logsBloom": "0x00000000000000000000000000000000000000000000000000000000000000000000000000000000000000000004000000000000000080000000000000000008000000000000000000000008000000000000000000000000000000000000000000000000020000000000000000000800000000000000000000000010000000200080000000000000008000000000000000000000000000000000000000000000000000000000000000000000000000002000000000000000000000000400008040000002000000000000000000000000000000000000000000000000000020000000000000000800200000000000000000000000000000000000000000000000",
      "type": "0x2",
      "transactionHash": "0xe61fe4040f8c29f1def06a4d74d3e09b2de65b48c1d5741ef98b406c6419b393",
      "transactionIndex": "0x85",
      "blockHash": "0xc1a2e20e2fdd5348c313f59d103b21237b8830df70e5a4cace7832014cb4bb4c",
      "blockNumber": "0x72b8c9",
      "gasUsed": "0x2f837",
      "effectiveGasPrice": "0x64bca4b7",
      "from": "0xa6cd042740cfabda78db63d61b36526202b13b21",
      "to": "0x3601829f59f17c475e305ac12d1b956b445d0876",
      "contractAddress": null
    },
    {
      "status": "0x1",
      "cumulativeGasUsed": "0x125c2e3",
      "logs": [
        {
          "address": "0x3601829f59f17c475e305ac12d1b956b445d0876",
          "topics": [
            "0xddf252ad1be2c89b69c2b068fc378daa952ba7f163c4a11628f55a4df523b3ef",
            "0x0000000000000000000000000000000000000000000000000000000000000000",
            "0x000000000000000000000000a6cd042740cfabda78db63d61b36526202b13b21",
            "0x0000000000000000000000000000000000000000000000000000000000000009"
          ],
          "data": "0x",
          "blockHash": "0xc1a2e20e2fdd5348c313f59d103b21237b8830df70e5a4cace7832014cb4bb4c",
          "blockNumber": "0x72b8c9",
          "transactionHash": "0x473430e22d3f2355865ac0435ab4947d792d918d34b83885e12e4f067315985b",
          "transactionIndex": "0x86",
          "logIndex": "0xcb",
          "removed": false
        },
        {
          "address": "0x3601829f59f17c475e305ac12d1b956b445d0876",
          "topics": [
            "0xf8e1a15aba9398e019f0b49df1a4fde98ee17ae345cb5f6b5e2c27f5033e8ce7"
          ],
          "data": "0x0000000000000000000000000000000000000000000000000000000000000009",
          "blockHash": "0xc1a2e20e2fdd5348c313f59d103b21237b8830df70e5a4cace7832014cb4bb4c",
          "blockNumber": "0x72b8c9",
          "transactionHash": "0x473430e22d3f2355865ac0435ab4947d792d918d34b83885e12e4f067315985b",
          "transactionIndex": "0x86",
          "logIndex": "0xcc",
          "removed": false
        }
      ],
      "logsBloom": "0x00000000000000000000000000000000000000000000000000000000000000000000000000000000000000000004000000000000000000000000000000200008000000000000000000000008000000000000000000000000000000000000000000000000020000000000000000000800000000000000000000000010000000200000000000000000008000000000000000001000000000000000000000000000000000000000000000000000000000002000000000000000000000000400008000000002000000000000000000000000000000000000000000000000000020000000000000000800200000000000000000000000000000000000000000800000",
      "type": "0x2",
      "transactionHash": "0x473430e22d3f2355865ac0435ab4947d792d918d34b83885e12e4f067315985b",
      "transactionIndex": "0x86",
      "blockHash": "0xc1a2e20e2fdd5348c313f59d103b21237b8830df70e5a4cace7832014cb4bb4c",
      "blockNumber": "0x72b8c9",
      "gasUsed": "0x2f85b",
      "effectiveGasPrice": "0x64bca4b7",
      "from": "0xa6cd042740cfabda78db63d61b36526202b13b21",
      "to": "0x3601829f59f17c475e305ac12d1b956b445d0876",
      "contractAddress": null
    },
    {
      "status": "0x1",
      "cumulativeGasUsed": "0xe0965e",
      "logs": [
        {
          "address": "0x3601829f59f17c475e305ac12d1b956b445d0876",
          "topics": [
            "0xddf252ad1be2c89b69c2b068fc378daa952ba7f163c4a11628f55a4df523b3ef",
            "0x0000000000000000000000000000000000000000000000000000000000000000",
            "0x000000000000000000000000a6cd042740cfabda78db63d61b36526202b13b21",
            "0x000000000000000000000000000000000000000000000000000000000000000a"
          ],
          "data": "0x",
          "blockHash": "0x5436ce46a2df5cd6d356332efddbcb56d78597ef15ad9e9bd2ad11c21420599a",
          "blockNumber": "0x72b8ca",
          "transactionHash": "0x27fd0ec720e2c0b790dec470bdf9d961828af94efacd331858ffb72c7f4434a8",
          "transactionIndex": "0x5d",
          "logIndex": "0xd4",
          "removed": false
        },
        {
          "address": "0x3601829f59f17c475e305ac12d1b956b445d0876",
          "topics": [
            "0xf8e1a15aba9398e019f0b49df1a4fde98ee17ae345cb5f6b5e2c27f5033e8ce7"
          ],
          "data": "0x000000000000000000000000000000000000000000000000000000000000000a",
          "blockHash": "0x5436ce46a2df5cd6d356332efddbcb56d78597ef15ad9e9bd2ad11c21420599a",
          "blockNumber": "0x72b8ca",
          "transactionHash": "0x27fd0ec720e2c0b790dec470bdf9d961828af94efacd331858ffb72c7f4434a8",
          "transactionIndex": "0x5d",
          "logIndex": "0xd5",
          "removed": false
        }
      ],
      "logsBloom": "0x00000000000000000000000000000000000000000000000000000000000000000000000000000000000000000004000000000000040000000020000000000008000000000000000000000008000000000000000000000000000000000000000000000000020000000000000000000800000000000000000000000010000000200000000000000000018000000000000000000000000000000000000000000000000000000000000000000000000000002000000000000000000000000400008000000002000000000000000000000000000000000000000000000000000020000000000000000800200000000000000000000000000000000000000000000000",
      "type": "0x2",
      "transactionHash": "0x27fd0ec720e2c0b790dec470bdf9d961828af94efacd331858ffb72c7f4434a8",
      "transactionIndex": "0x5d",
      "blockHash": "0x5436ce46a2df5cd6d356332efddbcb56d78597ef15ad9e9bd2ad11c21420599a",
      "blockNumber": "0x72b8ca",
      "gasUsed": "0x2f843",
      "effectiveGasPrice": "0x679538c9",
      "from": "0xa6cd042740cfabda78db63d61b36526202b13b21",
      "to": "0x3601829f59f17c475e305ac12d1b956b445d0876",
      "contractAddress": null
    },
    {
      "status": "0x1",
      "cumulativeGasUsed": "0xe3e720",
      "logs": [
        {
          "address": "0x3601829f59f17c475e305ac12d1b956b445d0876",
          "topics": [
            "0xddf252ad1be2c89b69c2b068fc378daa952ba7f163c4a11628f55a4df523b3ef",
            "0x0000000000000000000000000000000000000000000000000000000000000000",
            "0x000000000000000000000000a6cd042740cfabda78db63d61b36526202b13b21",
            "0x000000000000000000000000000000000000000000000000000000000000000b"
          ],
          "data": "0x",
          "blockHash": "0x5436ce46a2df5cd6d356332efddbcb56d78597ef15ad9e9bd2ad11c21420599a",
          "blockNumber": "0x72b8ca",
          "transactionHash": "0x7645bc5905d8f94445f3601edd24ec68d2b5afe5e2379c0009f3ea758f945a29",
          "transactionIndex": "0x5e",
          "logIndex": "0xd6",
          "removed": false
        },
        {
          "address": "0x3601829f59f17c475e305ac12d1b956b445d0876",
          "topics": [
            "0xf8e1a15aba9398e019f0b49df1a4fde98ee17ae345cb5f6b5e2c27f5033e8ce7"
          ],
          "data": "0x000000000000000000000000000000000000000000000000000000000000000b",
          "blockHash": "0x5436ce46a2df5cd6d356332efddbcb56d78597ef15ad9e9bd2ad11c21420599a",
          "blockNumber": "0x72b8ca",
          "transactionHash": "0x7645bc5905d8f94445f3601edd24ec68d2b5afe5e2379c0009f3ea758f945a29",
          "transactionIndex": "0x5e",
          "logIndex": "0xd7",
          "removed": false
        }
      ],
      "logsBloom": "0x00000000000000000000004000000000000000000000000000000000000000000000000000000000000000000004000000000000000000000000000000000008000000000000000000000008000000000000000000000000000000000000000000000000020000000000000000000800000000000000000000000010000000200000000000000000008000000000000000000000000000000000000000000000000000000000000000000000000000002000000000000000000000000400008000000002000000000000000000000000002000000000000000000000000020000000000000000800200000000000000000000000000000040000000000000000",
      "type": "0x2",
      "transactionHash": "0x7645bc5905d8f94445f3601edd24ec68d2b5afe5e2379c0009f3ea758f945a29",
      "transactionIndex": "0x5e",
      "blockHash": "0x5436ce46a2df5cd6d356332efddbcb56d78597ef15ad9e9bd2ad11c21420599a",
      "blockNumber": "0x72b8ca",
      "gasUsed": "0x350c2",
      "effectiveGasPrice": "0x679538c9",
      "from": "0xa6cd042740cfabda78db63d61b36526202b13b21",
      "to": "0x3601829f59f17c475e305ac12d1b956b445d0876",
      "contractAddress": null
    },
    {
      "status": "0x1",
      "cumulativeGasUsed": "0xe6df1b",
      "logs": [
        {
          "address": "0x3601829f59f17c475e305ac12d1b956b445d0876",
          "topics": [
            "0xddf252ad1be2c89b69c2b068fc378daa952ba7f163c4a11628f55a4df523b3ef",
            "0x0000000000000000000000000000000000000000000000000000000000000000",
            "0x000000000000000000000000a6cd042740cfabda78db63d61b36526202b13b21",
            "0x000000000000000000000000000000000000000000000000000000000000000c"
          ],
          "data": "0x",
          "blockHash": "0x5436ce46a2df5cd6d356332efddbcb56d78597ef15ad9e9bd2ad11c21420599a",
          "blockNumber": "0x72b8ca",
          "transactionHash": "0x624fcb8e9025dacc1ae405d956177909c63e2b4a74271b4468f0dfe7f66be698",
          "transactionIndex": "0x5f",
          "logIndex": "0xd8",
          "removed": false
        },
        {
          "address": "0x3601829f59f17c475e305ac12d1b956b445d0876",
          "topics": [
            "0xf8e1a15aba9398e019f0b49df1a4fde98ee17ae345cb5f6b5e2c27f5033e8ce7"
          ],
          "data": "0x000000000000000000000000000000000000000000000000000000000000000c",
          "blockHash": "0x5436ce46a2df5cd6d356332efddbcb56d78597ef15ad9e9bd2ad11c21420599a",
          "blockNumber": "0x72b8ca",
          "transactionHash": "0x624fcb8e9025dacc1ae405d956177909c63e2b4a74271b4468f0dfe7f66be698",
          "transactionIndex": "0x5f",
          "logIndex": "0xd9",
          "removed": false
        }
      ],
      "logsBloom": "0x00000000000000000000000000000000000002000000000000000000000000000000000000000200000000000004000000000000000000000000000000000008000000000000000000000008000000000000000000000000000000000000000000000000020000000000000000000800000000000000000000000010000000200000000000000000008000000000000000000000000000000000000000000000000000000000000000000000000000002000000000000000000000000400008000000002000000000000000000000000000000000000000000000000000020200000000000000800200000000000000000000000000000000000000000000000",
      "type": "0x2",
      "transactionHash": "0x624fcb8e9025dacc1ae405d956177909c63e2b4a74271b4468f0dfe7f66be698",
      "transactionIndex": "0x5f",
      "blockHash": "0x5436ce46a2df5cd6d356332efddbcb56d78597ef15ad9e9bd2ad11c21420599a",
      "blockNumber": "0x72b8ca",
      "gasUsed": "0x2f7fb",
      "effectiveGasPrice": "0x679538c9",
      "from": "0xa6cd042740cfabda78db63d61b36526202b13b21",
      "to": "0x3601829f59f17c475e305ac12d1b956b445d0876",
      "contractAddress": null
    }
  ],
  "libraries": [],
  "pending": [],
  "returns": {},
  "timestamp": 1737204145,
  "chain": 11155111,
  "commit": "77161f4"
}