{
  "transactions": [
    {
      "hash": "0xc41ee4472ad2c6a7013f21e232c5086252c46690f49afc37954f37eaf126a0cb",
      "transactionType": "CALL",
      "contractName": null,
      "contractAddress": "0x3601829f59f17c475e305ac12d1b956b445d0876",
      "function": "mintNFT(address,string)",
      "arguments": [
        "0xA6cD042740CFabDA78dB63d61b36526202b13b21",
        "https://aqua-rear-tyrannosaurus-290.mypinata.cloud/ipfs/bafybeigfomcerlap2ixqrvso6ee2avwrfzt5fyq5cqirsqehpofgzvpyaq/Acrobatic_Silky_Anime_Infobox.webp"
      ],
      "transaction": {
        "from": "0xa6cd042740cfabda78db63d61b36526202b13b21",
        "to": "0x3601829f59f17c475e305ac12d1b956b445d0876",
        "gas": "0x4584a",
        "value": "0x0",
        "input": "0xeacabe14000000000000000000000000a6cd042740cfabda78db63d61b36526202b13b210000000000000000000000000000000000000000000000000000000000000040000000000000000000000000000000000000000000000000000000000000009668747470733a2f2f617175612d726561722d747972616e6e6f7361757275732d3239302e6d7970696e6174612e636c6f75642f697066732f6261667962656967666f6d6365726c6170326978717276736f3665653261767772667a7435667971356371697273716568706f66677a76707961712f4163726f62617469635f53696c6b795f416e696d655f496e666f626f782e7765627000000000000000000000",
        "nonce": "0x21",
        "chainId": "0xaa36a7"
      },
      "additionalContracts": [],
      "isFixedGasLimit": false
    },
    {
      "hash": "0xb9492585ed8c7b7eea3efcedb42378d9bbba37545fa29f8f770723279319e166",
      "transactionType": "CALL",
      "contractName": null,
      "contractAddress": "0x3601829f59f17c475e305ac12d1b956b445d0876",
      "function": "mintNFT(address,string)",
      "arguments": [
        "0xA6cD042740CFabDA78dB63d61b36526202b13b21",
        "https://aqua-rear-tyrannosaurus-290.mypinata.cloud/ipfs/bafybeigfomcerlap2ixqrvso6ee2avwrfzt5fyq5cqirsqehpofgzvpyaq/Aira_Shiratori_Anime_Infobox_2.webp"
      ],
      "transaction": {
        "from": "0xa6cd042740cfabda78db63d61b36526202b13b21",
        "to": "0x3601829f59f17c475e305ac12d1b956b445d0876",
        "gas": "0x41a90",
        "value": "0x0",
        "input": "0xeacabe14000000000000000000000000a6cd042740cfabda78db63d61b36526202b13b210000000000000000000000000000000000000000000000000000000000000040000000000000000000000000000000000000000000000000000000000000009768747470733a2f2f617175612d726561722d747972616e6e6f7361757275732d3239302e6d7970696e6174612e636c6f75642f697066732f6261667962656967666f6d6365726c6170326978717276736f3665653261767772667a7435667971356371697273716568706f66677a76707961712f416972615f5368697261746f72695f416e696d655f496e666f626f785f322e77656270000000000000000000",
        "nonce": "0x22",
        "chainId": "0xaa36a7"
      },
      "additionalContracts": [],
      "isFixedGasLimit": false
    },
    {
      "hash": "0x05d82ac7e53fdf596cdedc54d04e366ee93ac2e7475cc9fd0d970cb1fd3f3f97",
      "transactionType": "CALL",
      "contractName": null,
      "contractAddress": "0x3601829f59f17c475e305ac12d1b956b445d0876",
      "function": "mintNFT(address,string)",
      "arguments": [
        "0xA6cD042740CFabDA78dB63d61b36526202b13b21",
        "https://aqua-rear-tyrannosaurus-290.mypinata.cloud/ipfs/bafybeigfomcerlap2ixqrvso6ee2avwrfzt5fyq5cqirsqehpofgzvpyaq/Flatwoods_Monster_full_appearance.webp"
      ],
      "transaction": {
        "from": "0xa6cd042740cfabda78db63d61b36526202b13b21",
        "to": "0x3601829f59f17c475e305ac12d1b956b445d0876",
        "gas": "0x45891",
        "value": "0x0",
        "input": "0xeacabe14000000000000000000000000a6cd042740cfabda78db63d61b36526202b13b210000000000000000000000000000000000000000000000000000000000000040000000000000000000000000000000000000000000000000000000000000009a68747470733a2f2f617175612d726561722d747972616e6e6f7361757275732d3239302e6d7970696e6174612e636c6f75642f697066732f6261667962656967666f6d6365726c6170326978717276736f3665653261767772667a7435667971356371697273716568706f66677a76707961712f466c6174776f6f64735f4d6f6e737465725f66756c6c5f617070656172616e63652e77656270000000000000",
        "nonce": "0x23",
        "chainId": "0xaa36a7"
      },
      "additionalContracts": [],
      "isFixedGasLimit": false
    },
    {
      "hash": "0x500866f1695fefdec93601b1002eab1e5d8dde7f808fd67fc0685993d2deca61",
      "transactionType": "CALL",
      "contractName": null,
      "contractAddress": "0x3601829f59f17c475e305ac12d1b956b445d0876",
      "function": "mintNFT(address,string)",
      "arguments": [
        "0xA6cD042740CFabDA78dB63d61b36526202b13b21",
        "https://aqua-rear-tyrannosaurus-290.mypinata.cloud/ipfs/bafybeigfomcerlap2ixqrvso6ee2avwrfzt5fyq5cqirsqehpofgzvpyaq/Jiji_Anime_Infobox.webp"
      ],
      "transaction": {
        "from": "0xa6cd042740cfabda78db63d61b36526202b13b21",
        "to": "0x3601829f59f17c475e305ac12d1b956b445d0876",
        "gas": "0x419c9",
        "value": "0x0",
        "input": "0xeacabe14000000000000000000000000a6cd042740cfabda78db63d61b36526202b13b210000000000000000000000000000000000000000000000000000000000000040000000000000000000000000000000000000000000000000000000000000008b68747470733a2f2f617175612d726561722d747972616e6e6f7361757275732d3239302e6d7970696e6174612e636c6f75642f697066732f6261667962656967666f6d6365726c6170326978717276736f3665653261767772667a7435667971356371697273716568706f66677a76707961712f4a696a695f416e696d655f496e666f626f782e77656270000000000000000000000000000000000000000000",
        "nonce": "0x24",
        "chainId": "0xaa36a7"
      },
      "additionalContracts": [],
      "isFixedGasLimit": false
    },
    {
      "hash": "0x8a81e349ac014c007b09fb22e0f79f9831f8fbf20fb129e9bcc417df4452ec0a",
      "transactionType": "CALL",
      "contractName": null,
      "contractAddress": "0x3601829f59f17c475e305ac12d1b956b445d0876",
      "function": "mintNFT(address,string)",
      "arguments": [
        "0xA6cD042740CFabDA78dB63d61b36526202b13b21",
        "https://aqua-rear-tyrannosaurus-290.mypinata.cloud/ipfs/bafybeigfomcerlap2ixqrvso6ee2avwrfzt5fyq5cqirsqehpofgzvpyaq/Mantis_Shrimp_Alien_Form_%2528Anime%2529.webp"
      ],
      "transaction": {
        "from": "0xa6cd042740cfabda78db63d61b36526202b13b21",
        "to": "0x3601829f59f17c475e305ac12d1b956b445d0876",
        "gas": "0x493a1",
        "value": "0x0",
        "input": "0xeacabe14000000000000000000000000a6cd042740cfabda78db63d61b36526202b13b21000000000000000000000000000000000000000000000000000000000000004000000000000000000000000000000000000000000000000000000000000000a168747470733a2f2f617175612d726561722d747972616e6e6f7361757275732d3239302e6d7970696e6174612e636c6f75642f697066732f6261667962656967666f6d6365726c6170326978717276736f3665653261767772667a7435667971356371697273716568706f66677a76707961712f4d616e7469735f536872696d705f416c69656e5f466f726d5f2532353238416e696d6525323532392e7765627000000000000000000000000000000000000000000000000000000000000000",
        "nonce": "0x25",
        "chainId": "0xaa36a7"
      },
      "additionalContracts": [],
      "isFixedGasLimit": false
    },
    {
      "hash": "0xe23f62a675b778e0f0067638b44055ad96ffd62b5e7cbe3ece079098c21a63ac",
      "transactionType": "CALL",
      "contractName": null,
      "contractAddress": "0x3601829f59f17c475e305ac12d1b956b445d0876",
      "function": "mintNFT(address,string)",
      "arguments": [
        "0xA6cD042740CFabDA78dB63d61b36526202b13b21",
        "https://aqua-rear-tyrannosaurus-290.mypinata.cloud/ipfs/bafybeigfomcerlap2ixqrvso6ee2avwrfzt5fyq5cqirsqehpofgzvpyaq/Momo_Ayase_Anime_Infobox_2.webp"
      ],
      "transaction": {
        "from": "0xa6cd042740cfabda78db63d61b36526202b13b21",
        "to": "0x3601829f59f17c475e305ac12d1b956b445d0876",
        "gas": "0x41a4d",
        "value": "0x0",
        "input": "0xeacabe14000000000000000000000000a6cd042740cfabda78db63d61b36526202b13b210000000000000000000000000000000000000000000000000000000000000040000000000000000000000000000000000000000000000000000000000000009368747470733a2f2f617175612d726561722d747972616e6e6f7361757275732d3239302e6d7970696e6174612e636c6f75642f697066732f6261667962656967666f6d6365726c6170326978717276736f3665653261767772667a7435667971356371697273716568706f66677a76707961712f4d6f6d6f5f41796173655f416e696d655f496e666f626f785f322e7765627000000000000000000000000000",
        "nonce": "0x26",
        "chainId": "0xaa36a7"
      },
      "additionalContracts": [],
      "isFixedGasLimit": false
    },
    {
      "hash": "0xa046bde958c50ef721c393be88a6684d3935a1781ca9d302e1295587f8c19b2b",
      "transactionType": "CALL",
      "contractName": null,
      "contractAddress": "0x3601829f59f17c475e305ac12d1b956b445d0876",
      "function": "mintNFT(address,string)",
      "arguments": [
        "0xA6cD042740CFabDA78dB63d61b36526202b13b21",
        "https://aqua-rear-tyrannosaurus-290.mypinata.cloud/ipfs/bafybeigfomcerlap2ixqrvso6ee2avwrfzt5fyq5cqirsqehpofgzvpyaq/Okarun%2527s_Turbo_Granny_Form.webp"
      ],
      "transaction": {
        "from": "0xa6cd042740cfabda78db63d61b36526202b13b21",
        "to": "0x3601829f59f17c475e305ac12d1b956b445d0876",
        "gas": "0x41a90",
        "value": "0x0",
        "input": "0xeacabe14000000000000000000000000a6cd042740cfabda78db63d61b36526202b13b210000000000000000000000000000000000000000000000000000000000000040000000000000000000000000000000000000000000000000000000000000009768747470733a2f2f617175612d726561722d747972616e6e6f7361757275732d3239302e6d7970696e6174612e636c6f75642f697066732f6261667962656967666f6d6365726c6170326978717276736f3665653261767772667a7435667971356371697273716568706f66677a76707961712f4f6b6172756e2532353237735f547572626f5f4772616e6e795f466f726d2e77656270000000000000000000",
        "nonce": "0x27",
        "chainId": "0xaa36a7"
      },
      "additionalContracts": [],
      "isFixedGasLimit": false
    },
    {
      "hash": "0xd3df7eff5259c3bf42961203f5e99d41cfd1c640b56974ae36df0a2c98fcef25",
      "transactionType": "CALL",
      "contractName": null,
      "contractAddress": "0x3601829f59f17c475e305ac12d1b956b445d0876",
      "function": "mintNFT(address,string)",
      "arguments": [
        "0xA6cD042740CFabDA78dB63d61b36526202b13b21",
        "https://aqua-rear-tyrannosaurus-290.mypinata.cloud/ipfs/bafybeigfomcerlap2ixqrvso6ee2avwrfzt5fyq5cqirsqehpofgzvpyaq/Okarun_Anime_Infobox_2.webp"
      ],
      "transaction": {
        "from": "0xa6cd042740cfabda78db63d61b36526202b13b21",
        "to": "0x3601829f59f17c475e305ac12d1b956b445d0876",
        "gas": "0x41a0b",
        "value": "0x0",
        "input": "0xeacabe14000000000000000000000000a6cd042740cfabda78db63d61b36526202b13b210000000000000000000000000000000000000000000000000000000000000040000000000000000000000000000000000000000000000000000000000000008f68747470733a2f2f617175612d726561722d747972616e6e6f7361757275732d3239302e6d7970696e6174612e636c6f75642f697066732f6261667962656967666f6d6365726c6170326978717276736f3665653261767772667a7435667971356371697273716568706f66677a76707961712f4f6b6172756e5f416e696d655f496e666f626f785f322e776562700000000000000000000000000000000000",
        "nonce": "0x28",
        "chainId": "0xaa36a7"
      },
      "additionalContracts": [],
      "isFixedGasLimit": false
    },
    {
      "hash": null,
      "transactionType": "CALL",
      "contractName": null,
      "contractAddress": "0x3601829f59f17c475e305ac12d1b956b445d0876",
      "function": "mintNFT(address,string)",
      "arguments": [
        "0xA6cD042740CFabDA78dB63d61b36526202b13b21",
        "https://aqua-rear-tyrannosaurus-290.mypinata.cloud/ipfs/bafybeigfomcerlap2ixqrvso6ee2avwrfzt5fyq5cqirsqehpofgzvpyaq/Seiko_Ayase_Anime_Infobox.webp"
      ],
      "transaction": {
        "from": "0xa6cd042740cfabda78db63d61b36526202b13b21",
        "to": "0x3601829f59f17c475e305ac12d1b956b445d0876",
        "gas": "0x45804",
        "value": "0x0",
        "input": "0xeacabe14000000000000000000000000a6cd042740cfabda78db63d61b36526202b13b210000000000000000000000000000000000000000000000000000000000000040000000000000000000000000000000000000000000000000000000000000009268747470733a2f2f617175612d726561722d747972616e6e6f7361757275732d3239302e6d7970696e6174612e636c6f75642f697066732f6261667962656967666f6d6365726c6170326978717276736f3665653261767772667a7435667971356371697273716568706f66677a76707961712f5365696b6f5f41796173655f416e696d655f496e666f626f782e776562700000000000000000000000000000",
        "nonce": "0x29",
        "chainId": "0xaa36a7"
      },
      "additionalContracts": [],
      "isFixedGasLimit": false
    },
    {
      "hash": null,
      "transactionType": "CALL",
      "contractName": null,
      "contractAddress": "0x3601829f59f17c475e305ac12d1b956b445d0876",
      "function": "mintNFT(address,string)",
      "arguments": [
        "0xA6cD042740CFabDA78dB63d61b36526202b13b21",
        "https://aqua-rear-tyrannosaurus-290.mypinata.cloud/ipfs/bafybeigfomcerlap2ixqrvso6ee2avwrfzt5fyq5cqirsqehpofgzvpyaq/Serpo_Reproductive_Tool.webp"
      ],
      "transaction": {
        "from": "0xa6cd042740cfabda78db63d61b36526202b13b21",
        "to": "0x3601829f59f17c475e305ac12d1b956b445d0876",
        "gas": "0x457e1",
        "value": "0x0",
        "input": "0xeacabe14000000000000000000000000a6cd042740cfabda78db63d61b36526202b13b210000000000000000000000000000000000000000000000000000000000000040000000000000000000000000000000000000000000000000000000000000009068747470733a2f2f617175612d726561722d747972616e6e6f7361757275732d3239302e6d7970696e6174612e636c6f75642f697066732f6261667962656967666f6d6365726c6170326978717276736f3665653261767772667a7435667971356371697273716568706f66677a76707961712f536572706f5f526570726f647563746976655f546f6f6c2e7765627000000000000000000000000000000000",
        "nonce": "0x2a",
        "chainId": "0xaa36a7"
      },
      "additionalContracts": [],
      "isFixedGasLimit": false
    },
    {
      "hash": null,
      "transactionType": "CALL",
      "contractName": null,
      "contractAddress": "0x3601829f59f17c475e305ac12d1b956b445d0876",
      "function": "mintNFT(address,string)",
      "arguments": [
        "0xA6cD042740CFabDA78dB63d61b36526202b13b21",
        "https://aqua-rear-tyrannosaurus-290.mypinata.cloud/ipfs/bafybeigfomcerlap2ixqrvso6ee2avwrfzt5fyq5cqirsqehpofgzvpyaq/Turbo_Granny_%2528Doll%2529_Infobox_%2528Anime%2529.webp"
      ],
      "transaction": {
        "from": "0xa6cd042740cfabda78db63d61b36526202b13b21",
        "to": "0x3601829f59f17c475e305ac12d1b956b445d0876",
        "gas": "0x4d94e",
        "value": "0x0",
        "input": "0xeacabe14000000000000000000000000a6cd042740cfabda78db63d61b36526202b13b21000000000000000000000000000000000000000000000000000000000000004000000000000000000000000000000000000000000000000000000000000000ac68747470733a2f2f617175612d726561722d747972616e6e6f7361757275732d3239302e6d7970696e6174612e636c6f75642f697066732f6261667962656967666f6d6365726c6170326978717276736f3665653261767772667a7435667971356371697273716568706f66677a76707961712f547572626f5f4772616e6e795f2532353238446f6c6c25323532395f496e666f626f785f2532353238416e696d6525323532392e776562700000000000000000000000000000000000000000",
        "nonce": "0x2b",
        "chainId": "0xaa36a7"
      },
      "additionalContracts": [],
      "isFixedGasLimit": false
    },
    {
      "hash": null,
      "transactionType": "CALL",
      "contractName": null,
      "contractAddress": "0x3601829f59f17c475e305ac12d1b956b445d0876",
      "function": "mintNFT(address,string)",
      "arguments": [
        "0xA6cD042740CFabDA78dB63d61b36526202b13b21",
        "https://aqua-rear-tyrannosaurus-290.mypinata.cloud/ipfs/bafybeigfomcerlap2ixqrvso6ee2avwrfzt5fyq5cqirsqehpofgzvpyaq/Unji_Zuma_Infobox.webp"
      ],
      "transaction": {
        "from": "0xa6cd042740cfabda78db63d61b36526202b13b21",
        "to": "0x3601829f59f17c475e305ac12d1b956b445d0876",
        "gas": "0x45778",
        "value": "0x0",
        "input": "0xeacabe14000000000000000000000000a6cd042740cfabda78db63d61b36526202b13b210000000000000000000000000000000000000000000000000000000000000040000000000000000000000000000000000000000000000000000000000000008a68747470733a2f2f617175612d726561722d747972616e6e6f7361757275732d3239302e6d7970696e6174612e636c6f75642f697066732f6261667962656967666f6d6365726c6170326978717276736f3665653261767772667a7435667971356371697273716568706f66677a76707961712f556e6a695f5a756d615f496e666f626f782e7765627000000000000000000000000000000000000000000000",
        "nonce": "0x2c",
        "chainId": "0xaa36a7"
      },
      "additionalContracts": [],
      "isFixedGasLimit": false
    }
  ],
  "receipts": [],
  "libraries": [],
  "pending": [
    "0xc41ee4472ad2c6a7013f21e232c5086252c46690f49afc37954f37eaf126a0cb",
    "0xb9492585ed8c7b7eea3efcedb42378d9bbba37545fa29f8f770723279319e166",
    "0x05d82ac7e53fdf596cdedc54d04e366ee93ac2e7475cc9fd0d970cb1fd3f3f97",
    "0x500866f1695fefdec93601b1002eab1e5d8dde7f808fd67fc0685993d2deca61",
    "0x8a81e349ac014c007b09fb22e0f79f9831f8fbf20fb129e9bcc417df4452ec0a",
    "0xe23f62a675b778e0f0067638b44055ad96ffd62b5e7cbe3ece079098c21a63ac",
    "0xa046bde958c50ef721c393be88a6684d3935a1781ca9d302e1295587f8c19b2b",
    "0xd3df7eff5259c3bf42961203f5e99d41cfd1c640b56974ae36df0a2c98fcef25"
  ],
  "returns": {},
  "timestamp": 1737207228,
  "chain": 11155111,
  "commit": "a1573fc"
}