{
  "transactions": [
    {
      "hash": "0x70ec5ff6c4a0a6d337b76015279571a25e57cb8547c56990c88a7452791a9bc1",
      "transactionType": "CALL",
      "contractName": null,
      "contractAddress": "0x30f127b8168cda75a0eab1446a29086b7d59e602",
      "function": "mintNFT(address,string)",
      "arguments": [
        "0xA6cD042740CFabDA78dB63d61b36526202b13b21",
        "https://eth-sepolia.g.alchemy.com/v2/O4ootU17ibizh5rCTGAFxyTGZtpuimsW"
      ],
      "transaction": {
        "from": "0xa6cd042740cfabda78db63d61b36526202b13b21",
        "to": "0x30f127b8168cda75a0eab1446a29086b7d59e602",
        "gas": "0x41611",
        "value": "0x0",
        "input": "0xeacabe14000000000000000000000000a6cd042740cfabda78db63d61b36526202b13b210000000000000000000000000000000000000000000000000000000000000040000000000000000000000000000000000000000000000000000000000000004568747470733a2f2f6574682d7365706f6c69612e672e616c6368656d792e636f6d2f76322f4f346f6f745531376962697a6835724354474146787954475a747075696d7357000000000000000000000000000000000000000000000000000000",
        "nonce": "0xa",
        "chainId": "0xaa36a7"
      },
      "additionalContracts": [],
      "isFixedGasLimit": false
    }
  ],
  "receipts": [
    {
      "status": "0x1",
      "cumulativeGasUsed": "0x5fff45",
      "logs": [
        {
          "address": "0x30f127b8168cda75a0eab1446a29086b7d59e602",
          "topics": [
            "0xddf252ad1be2c89b69c2b068fc378daa952ba7f163c4a11628f55a4df523b3ef",
            "0x0000000000000000000000000000000000000000000000000000000000000000",
            "0x000000000000000000000000a6cd042740cfabda78db63d61b36526202b13b21",
            "0x0000000000000000000000000000000000000000000000000000000000000001"
          ],
          "data": "0x",
          "blockHash": "0x2b4cae5eb708b942d6d5986eac91a4b01f53204b3be5c2467fa15dbb2f648c5b",
          "blockNumber": "0x71e536",
          "transactionHash": "0x70ec5ff6c4a0a6d337b76015279571a25e57cb8547c56990c88a7452791a9bc1",
          "transactionIndex": "0x28",
          "logIndex": "0x69",
          "removed": false
        },
        {
          "address": "0x30f127b8168cda75a0eab1446a29086b7d59e602",
          "topics": [
            "0xf8e1a15aba9398e019f0b49df1a4fde98ee17ae345cb5f6b5e2c27f5033e8ce7"
          ],
          "data": "0x0000000000000000000000000000000000000000000000000000000000000001",
          "blockHash": "0x2b4cae5eb708b942d6d5986eac91a4b01f53204b3be5c2467fa15dbb2f648c5b",
          "blockNumber": "0x71e536",
          "transactionHash": "0x70ec5ff6c4a0a6d337b76015279571a25e57cb8547c56990c88a7452791a9bc1",
          "transactionIndex": "0x28",
          "logIndex": "0x6a",
          "removed": false
        }
      ],
      "logsBloom": "0x00000000000000000000000000000000000000000000000000000000000000000000000000000000000000000084000000000000000000000000000000040000000000000000000000000008000000000000000000040000000000000000000000000000020000000000000000000800000000000000000000000010000000200000000000000000000000000000000000000000000000000800000000000000000000000000000000000000000000002000000000000000000000000400008000000002000000000000000000000000000000000000000000000000000060000000000000000800200000000000000000000000000000000000000000000000",
      "type": "0x2",
      "transactionHash": "0x70ec5ff6c4a0a6d337b76015279571a25e57cb8547c56990c88a7452791a9bc1",
      "transactionIndex": "0x28",
      "blockHash": "0x2b4cae5eb708b942d6d5986eac91a4b01f53204b3be5c2467fa15dbb2f648c5b",
      "blockNumber": "0x71e536",
      "gasUsed": "0x2cb43",
      "effectiveGasPrice": "0x148d38586",
      "from": "0xa6cd042740cfabda78db63d61b36526202b13b21",
      "to": "0x30f127b8168cda75a0eab1446a29086b7d59e602",
      "contractAddress": null
    }
  ],
  "libraries": [],
  "pending": [],
  "returns": {},
  "timestamp": 1736551766,
  "chain": 11155111,
  "commit": "77161f4"
}