{
  "transactions": [
    {
      "hash": "0x9edf6b90a7b54589a9444d632e717f24cffa0b0a04f2e230525bcab05f10b0f5",
      "transactionType": "CALL",
      "contractName": null,
      "contractAddress": "0x30f127b8168cda75a0eab1446a29086b7d59e602",
      "function": "mintNFT(address,string)",
      "arguments": [
        "0xA6cD042740CFabDA78dB63d61b36526202b13b21",
        "https://eth-sepolia.g.alchemy.com/v2/O4ootU17ibizh5rCTGAFxyTGZtpuimsW"
      ],
      "transaction": {
        "from": "0xa6cd042740cfabda78db63d61b36526202b13b21",
        "to": "0x30f127b8168cda75a0eab1446a29086b7d59e602",
        "gas": "0x352b0",
        "value": "0x0",
        "input": "0xeacabe14000000000000000000000000a6cd042740cfabda78db63d61b36526202b13b210000000000000000000000000000000000000000000000000000000000000040000000000000000000000000000000000000000000000000000000000000004568747470733a2f2f6574682d7365706f6c69612e672e616c6368656d792e636f6d2f76322f4f346f6f745531376962697a6835724354474146787954475a747075696d7357000000000000000000000000000000000000000000000000000000",
        "nonce": "0xb",
        "chainId": "0xaa36a7"
      },
      "additionalContracts": [],
      "isFixedGasLimit": false
    }
  ],
  "receipts": [
    {
      "status": "0x1",
      "cumulativeGasUsed": "0xc7427",
      "logs": [
        {
          "address": "0x30f127b8168cda75a0eab1446a29086b7d59e602",
          "topics": [
            "0xddf252ad1be2c89b69c2b068fc378daa952ba7f163c4a11628f55a4df523b3ef",
            "0x0000000000000000000000000000000000000000000000000000000000000000",
            "0x000000000000000000000000a6cd042740cfabda78db63d61b36526202b13b21",
            "0x0000000000000000000000000000000000000000000000000000000000000002"
          ],
          "data": "0x",
          "blockHash": "0xd913b9b63d675ce25477d13e60771ae5ef8ce3d742a7459ef84dd0783718bf49",
          "blockNumber": "0x71e539",
          "transactionHash": "0x9edf6b90a7b54589a9444d632e717f24cffa0b0a04f2e230525bcab05f10b0f5",
          "transactionIndex": "0x8",
          "logIndex": "0xb",
          "removed": false
        },
        {
          "address": "0x30f127b8168cda75a0eab1446a29086b7d59e602",
          "topics": [
            "0xf8e1a15aba9398e019f0b49df1a4fde98ee17ae345cb5f6b5e2c27f5033e8ce7"
          ],
          "data": "0x0000000000000000000000000000000000000000000000000000000000000002",
          "blockHash": "0xd913b9b63d675ce25477d13e60771ae5ef8ce3d742a7459ef84dd0783718bf49",
          "blockNumber": "0x71e539",
          "transactionHash": "0x9edf6b90a7b54589a9444d632e717f24cffa0b0a04f2e230525bcab05f10b0f5",
          "transactionIndex": "0x8",
          "logIndex": "0xc",
          "removed": false
        }
      ],
      "logsBloom": "0x04000000000000000000000000000000000000000000000000000000000000000000000000000000000000000084000000000000000000000000000000000000000000000000000000000008000000000000000000000000000000000000000000000000020000000000000000000800000000000000000000000010000000200000000000000000000000000000000000000000000000000800000000000000000000000000000000000100000000002000000000000000000000000400008000000002000000000000000000000000000000000000000000000000000020000000000000000800200000000000000000000000008000000000000000000000",
      "type": "0x2",
      "transactionHash": "0x9edf6b90a7b54589a9444d632e717f24cffa0b0a04f2e230525bcab05f10b0f5",
      "transactionIndex": "0x8",
      "blockHash": "0xd913b9b63d675ce25477d13e60771ae5ef8ce3d742a7459ef84dd0783718bf49",
      "blockNumber": "0x71e539",
      "gasUsed": "0x245ab",
      "effectiveGasPrice": "0x15308d5be",
      "from": "0xa6cd042740cfabda78db63d61b36526202b13b21",
      "to": "0x30f127b8168cda75a0eab1446a29086b7d59e602",
      "contractAddress": null
    }
  ],
  "libraries": [],
  "pending": [],
  "returns": {},
  "timestamp": 1736551802,
  "chain": 11155111,
  "commit": "77161f4"
}